{
    "_format": "hh-sol-artifact-1",
    "contractName": "TigerWave",
    "sourceName": "contracts/TigerWave.sol",
    "abi": [
        {
            "inputs": [],
            "stateMutability": "payable",
            "type": "constructor"
        },
        {
            "anonymous": false,
            "inputs": [
                {
                    "indexed": true,
                    "internalType": "address",
                    "name": "from",
                    "type": "address"
                },
                {
                    "indexed": false,
                    "internalType": "uint256",
                    "name": "timestamp",
                    "type": "uint256"
                },
                {
                    "indexed": false,
                    "internalType": "string",
                    "name": "message",
                    "type": "string"
                }
            ],
            "name": "NewWave",
            "type": "event"
        },
        {
            "inputs": [],
            "name": "getAllWaves",
            "outputs": [
                {
                    "components": [
                        {
                            "internalType": "address",
                            "name": "waver",
                            "type": "address"
                        },
                        {
                            "internalType": "string",
                            "name": "message",
                            "type": "string"
                        },
                        {
                            "internalType": "uint256",
                            "name": "timestamp",
                            "type": "uint256"
                        }
                    ],
                    "internalType": "struct TigerWave.Wave[]",
                    "name": "",
                    "type": "tuple[]"
                }
            ],
            "stateMutability": "view",
            "type": "function"
        },
        {
            "inputs": [],
            "name": "getTotalWaves",
            "outputs": [
                {
                    "internalType": "uint256",
                    "name": "",
                    "type": "uint256"
                }
            ],
            "stateMutability": "view",
            "type": "function"
        },
        {
            "inputs": [
                {
                    "internalType": "address",
                    "name": "",
                    "type": "address"
                }
            ],
            "name": "lastWavedAt",
            "outputs": [
                {
                    "internalType": "uint256",
                    "name": "",
                    "type": "uint256"
                }
            ],
            "stateMutability": "view",
            "type": "function"
        },
        {
            "inputs": [
                {
                    "internalType": "string",
                    "name": "_message",
                    "type": "string"
                }
            ],
            "name": "wave",
            "outputs": [],
            "stateMutability": "nonpayable",
            "type": "function"
        }
    ],
    "bytecode": "0x60806040526200004f6040518060400160405280601b81526020017f48656c6c6f2c2049276d2077726974696e6720636f6e747261637400000000008152506200007760201b620006881760201c565b606444426200005f91906200017c565b6200006b919062000208565b60018190555062000308565b62000117816040516024016200008e9190620002e4565b6040516020818303038152906040527f41304fac000000000000000000000000000000000000000000000000000000007bffffffffffffffffffffffffffffffffffffffffffffffffffffffff19166020820180517bffffffffffffffffffffffffffffffffffffffffffffffffffffffff83818316178352505050506200011a60201b60201c565b50565b60008151905060006a636f6e736f6c652e6c6f679050602083016000808483855afa5050505050565b6000819050919050565b7f4e487b7100000000000000000000000000000000000000000000000000000000600052601160045260246000fd5b6000620001898262000143565b9150620001968362000143565b9250827fffffffffffffffffffffffffffffffffffffffffffffffffffffffffffffffff03821115620001ce57620001cd6200014d565b5b828201905092915050565b7f4e487b7100000000000000000000000000000000000000000000000000000000600052601260045260246000fd5b6000620002158262000143565b9150620002228362000143565b925082620002355762000234620001d9565b5b828206905092915050565b600081519050919050565b600082825260208201905092915050565b60005b838110156200027c5780820151818401526020810190506200025f565b838111156200028c576000848401525b50505050565b6000601f19601f8301169050919050565b6000620002b08262000240565b620002bc81856200024b565b9350620002ce8185602086016200025c565b620002d98162000292565b840191505092915050565b60006020820190508181036000830152620003008184620002a3565b905092915050565b6111be80620003186000396000f3fe608060405234801561001057600080fd5b506004361061004c5760003560e01c8063449d46c0146100515780639a2cdc081461006d578063a42a46631461008b578063bd43a908146100bb575b600080fd5b61006b60048036038101906100669190610a7f565b6100d9565b005b6100756104d4565b6040516100829190610ae1565b60405180910390f35b6100a560048036038101906100a09190610b5a565b61051f565b6040516100b29190610ae1565b60405180910390f35b6100c3610537565b6040516100d09190610d3f565b60405180910390f35b4260b4600360003373ffffffffffffffffffffffffffffffffffffffff1673ffffffffffffffffffffffffffffffffffffffff168152602001908152602001600020546101269190610d90565b10610166576040517f08c379a000000000000000000000000000000000000000000000000000000000815260040161015d90610e43565b60405180910390fd5b42600360003373ffffffffffffffffffffffffffffffffffffffff1673ffffffffffffffffffffffffffffffffffffffff1681526020019081526020016000208190555060016000808282546101bc9190610d90565b925050819055506102026040518060400160405280600d81526020017f257320686173207761766564210000000000000000000000000000000000000081525033610721565b600260405180606001604052803373ffffffffffffffffffffffffffffffffffffffff16815260200183815260200142815250908060018154018082558091505060019003906000526020600020906003020160009091909190915060008201518160000160006101000a81548173ffffffffffffffffffffffffffffffffffffffff021916908373ffffffffffffffffffffffffffffffffffffffff16021790555060208201518160010190805190602001906102c1929190610882565b50604082015181600201555050606460015442446102df9190610d90565b6102e99190610d90565b6102f39190610e92565b60018190555061033a6040518060400160405280601681526020017f52616e646f6d20232067656e6572617465643a202564000000000000000000008152506001546107bd565b60326001541015610481576103846040518060400160405280600781526020017f257320776f6e210000000000000000000000000000000000000000000000000081525033610721565b6000655af3107a40009050478111156103d2576040517f08c379a00000000000000000000000000000000000000000000000000000000081526004016103c990610f35565b60405180910390fd5b60003373ffffffffffffffffffffffffffffffffffffffff16826040516103f890610f86565b60006040518083038185875af1925050503d8060008114610435576040519150601f19603f3d011682016040523d82523d6000602084013e61043a565b606091505b505090508061047e576040517f08c379a00000000000000000000000000000000000000000000000000000000081526004016104759061100d565b60405180910390fd5b50505b3373ffffffffffffffffffffffffffffffffffffffff167f5f7e16dc676677766a70e9c5628aa6c54ddb8b6e5188e2ae1e1f17f1ffbea71642836040516104c9929190611066565b60405180910390a250565b60006105176040518060400160405280601781526020017f5765206861766520256420746f74616c207761766573210000000000000000008152506000546107bd565b600054905090565b60036020528060005260406000206000915090505481565b60606002805480602002602001604051908101604052809291908181526020016000905b8282101561067f57838290600052602060002090600302016040518060600160405290816000820160009054906101000a900473ffffffffffffffffffffffffffffffffffffffff1673ffffffffffffffffffffffffffffffffffffffff1673ffffffffffffffffffffffffffffffffffffffff1681526020016001820180546105e4906110c5565b80601f0160208091040260200160405190810160405280929190818152602001828054610610906110c5565b801561065d5780601f106106325761010080835404028352916020019161065d565b820191906000526020600020905b81548152906001019060200180831161064057829003601f168201915b505050505081526020016002820154815250508152602001906001019061055b565b50505050905090565b61071e8160405160240161069c91906110f7565b6040516020818303038152906040527f41304fac000000000000000000000000000000000000000000000000000000007bffffffffffffffffffffffffffffffffffffffffffffffffffffffff19166020820180517bffffffffffffffffffffffffffffffffffffffffffffffffffffffff8381831617835250505050610859565b50565b6107b98282604051602401610737929190611128565b6040516020818303038152906040527f319af333000000000000000000000000000000000000000000000000000000007bffffffffffffffffffffffffffffffffffffffffffffffffffffffff19166020820180517bffffffffffffffffffffffffffffffffffffffffffffffffffffffff8381831617835250505050610859565b5050565b61085582826040516024016107d3929190611158565b6040516020818303038152906040527f9710a9d0000000000000000000000000000000000000000000000000000000007bffffffffffffffffffffffffffffffffffffffffffffffffffffffff19166020820180517bffffffffffffffffffffffffffffffffffffffffffffffffffffffff8381831617835250505050610859565b5050565b60008151905060006a636f6e736f6c652e6c6f679050602083016000808483855afa5050505050565b82805461088e906110c5565b90600052602060002090601f0160209004810192826108b057600085556108f7565b82601f106108c957805160ff19168380011785556108f7565b828001600101855582156108f7579182015b828111156108f65782518255916020019190600101906108db565b5b5090506109049190610908565b5090565b5b80821115610921576000816000905550600101610909565b5090565b6000604051905090565b600080fd5b600080fd5b600080fd5b600080fd5b6000601f19601f8301169050919050565b7f4e487b7100000000000000000000000000000000000000000000000000000000600052604160045260246000fd5b61098c82610943565b810181811067ffffffffffffffff821117156109ab576109aa610954565b5b80604052505050565b60006109be610925565b90506109ca8282610983565b919050565b600067ffffffffffffffff8211156109ea576109e9610954565b5b6109f382610943565b9050602081019050919050565b82818337600083830152505050565b6000610a22610a1d846109cf565b6109b4565b905082815260208101848484011115610a3e57610a3d61093e565b5b610a49848285610a00565b509392505050565b600082601f830112610a6657610a65610939565b5b8135610a76848260208601610a0f565b91505092915050565b600060208284031215610a9557610a9461092f565b5b600082013567ffffffffffffffff811115610ab357610ab2610934565b5b610abf84828501610a51565b91505092915050565b6000819050919050565b610adb81610ac8565b82525050565b6000602082019050610af66000830184610ad2565b92915050565b600073ffffffffffffffffffffffffffffffffffffffff82169050919050565b6000610b2782610afc565b9050919050565b610b3781610b1c565b8114610b4257600080fd5b50565b600081359050610b5481610b2e565b92915050565b600060208284031215610b7057610b6f61092f565b5b6000610b7e84828501610b45565b91505092915050565b600081519050919050565b600082825260208201905092915050565b6000819050602082019050919050565b610bbc81610b1c565b82525050565b600081519050919050565b600082825260208201905092915050565b60005b83811015610bfc578082015181840152602081019050610be1565b83811115610c0b576000848401525b50505050565b6000610c1c82610bc2565b610c268185610bcd565b9350610c36818560208601610bde565b610c3f81610943565b840191505092915050565b610c5381610ac8565b82525050565b6000606083016000830151610c716000860182610bb3565b5060208301518482036020860152610c898282610c11565b9150506040830151610c9e6040860182610c4a565b508091505092915050565b6000610cb58383610c59565b905092915050565b6000602082019050919050565b6000610cd582610b87565b610cdf8185610b92565b935083602082028501610cf185610ba3565b8060005b85811015610d2d5784840389528151610d0e8582610ca9565b9450610d1983610cbd565b925060208a01995050600181019050610cf5565b50829750879550505050505092915050565b60006020820190508181036000830152610d598184610cca565b905092915050565b7f4e487b7100000000000000000000000000000000000000000000000000000000600052601160045260246000fd5b6000610d9b82610ac8565b9150610da683610ac8565b9250827fffffffffffffffffffffffffffffffffffffffffffffffffffffffffffffffff03821115610ddb57610dda610d61565b5b828201905092915050565b600082825260208201905092915050565b7f5761697420336d00000000000000000000000000000000000000000000000000600082015250565b6000610e2d600783610de6565b9150610e3882610df7565b602082019050919050565b60006020820190508181036000830152610e5c81610e20565b9050919050565b7f4e487b7100000000000000000000000000000000000000000000000000000000600052601260045260246000fd5b6000610e9d82610ac8565b9150610ea883610ac8565b925082610eb857610eb7610e63565b5b828206905092915050565b7f547279696e6720746f207769746864726177206d6f7265206d6f6e657920746860008201527f61742074686520636f6e7472616374206861732e000000000000000000000000602082015250565b6000610f1f603483610de6565b9150610f2a82610ec3565b604082019050919050565b60006020820190508181036000830152610f4e81610f12565b9050919050565b600081905092915050565b50565b6000610f70600083610f55565b9150610f7b82610f60565b600082019050919050565b6000610f9182610f63565b9150819050919050565b7f4661696c656420746f207769746864726177206d6f6e65792066726f6d20636f60008201527f6e74726163742e00000000000000000000000000000000000000000000000000602082015250565b6000610ff7602783610de6565b915061100282610f9b565b604082019050919050565b6000602082019050818103600083015261102681610fea565b9050919050565b600061103882610bc2565b6110428185610de6565b9350611052818560208601610bde565b61105b81610943565b840191505092915050565b600060408201905061107b6000830185610ad2565b818103602083015261108d818461102d565b90509392505050565b7f4e487b7100000000000000000000000000000000000000000000000000000000600052602260045260246000fd5b600060028204905060018216806110dd57607f821691505b602082108114156110f1576110f0611096565b5b50919050565b60006020820190508181036000830152611111818461102d565b905092915050565b61112281610b1c565b82525050565b60006040820190508181036000830152611142818561102d565b90506111516020830184611119565b9392505050565b60006040820190508181036000830152611172818561102d565b90506111816020830184610ad2565b939250505056fea2646970667358221220b8d6d8e556783b13cb8a40bc2db1faf93ba3df2f1946bd7760c37511043242d264736f6c63430008090033",
    "linkReferences": {},
    "deployedLinkReferences": {}
}